:020000020000FC
:100000000C9428000C9467000C947F000C948000E2
:100010000C9481000C9482000C9483000C94840056
:100020000C9485000C9486000C9487000C94880036
:100030000C94BE000C94BF000C94C0000C94C30040
:100040000C94C5000C94C8000C94C9000C94CA0010
:10005000B0E0B0BDB3E3B9B9B6E8B0BDB8E1BAB984
:10006000BB27AFEFBABBB0E0BBBBBFEFA4BBB0E0F8
:10007000B5BB03E003BF0EE40CBF01E009BF7894F9
:100080000027BFE5BDBFB8E0BEBFB0E0B0936100E0
:10009000B0936200B0936800B0936900B0936000C1
:1000A000B0E0B0936400B0936500B0936600B09385
:1000B0006700B1E0B0936300BB272224882757D1A3
:1000C0000093680054D10093690065C01895BFEF94
:1000D000C0E0B7BBB8BBE2D0C8BBE0D0B8BBDED095
:1000E000C8BBDCD0B8BBDAD0C8BBD8D0B8BBD6D080
:1000F000C8BBD4D0B8BBD2D0C8BBD0D01895189547
:100100001895189518951895189518951895189587
:10011000F8940F931F932F93EF93FF93BF93BFB761
:10012000BF9314E620E000916000E02FF0E0E10FC3
:10013000F21F008105BB009163000BBB102F110F54
:100140001093630008E0011718F4B1E0B093630066
:1001500000916000102F1F5F1093600003E00117F3
:1001600018F4B0E0B0936000BF91BFBFBF91FF91A2
:10017000EF912F911F910F917894189518951895DC
:100180005D9BFECF18951CB91895E199FECF189587
:10019000189518951895882700916800EED0009161
:1001A0006900EBD048EE53E00091680010916900BF
:1001B00098D08C01009361001093620079D0202EBA
:1001C000A4D00F9344E650E00091680010916900BC
:1001D00088D08C014AE050E084D08D01009361000A
:1001E0001093620065D0202E90D00F934AE050E02B
:1001F000009168001091690074D08C014AE050E0D1
:1002000070D08D01009361001093620051D0202EB8
:100210007CD00F934AE050E0009168001091690093
:1002200060D08D01009361001093620041D0202EB8
:100230006CD00F930F91009364000F9100936500B1
:100240000F91009366000F91009367001DD00091FD
:1002500068001091690098012F5F3F4F209368005C
:10026000309369000FE017E20217130730F4B0E093
:10027000B0936800B09369002ADF1BE081DF83DF61
:100280001DE07EDF80DF87CF29E216E900E80A95CE
:10029000F1F71A95E1F72A95D1F7089525E01FE0C7
:1002A00002EF0A95F1F71A95E1F72A95D1F708952B
:1002B0000F931F932F933F934F935F936F937F936E
:1002C0008F93009161000063102F5ADF5CDF8F91E4
:1002D0007F916F915F914F913F912F911F910F915E
:1002E0000895C801BA01AA1BBB1B51E107C0AA1F90
:1002F000BB1FA617B70710F0A61BB70B881F991FC7
:100300005A95A9F7809590950895B0E02B16D9F0ED
:10031000B1E02B16D1F0B2E02B16C9F0B3E02B16EA
:10032000C1F0B4E02B16B9F0B5E02B16B1F0B6E091
:100330002B16A9F0B7E02B16A1F0B8E02B1699F018
:10034000B9E02B1691F00FE3089506E008950BE550
:1003500008950FE4089506E608950DE608950DE763
:10036000089507E008950FE708950FE608950DDF5B
:100370008EBBE09A0DB38395089507DF8EBB0DBB4E
:0C038000F894E29AE19A7894839508952D
:00000001FF
